:100000004BC0000066C0000064C0000062C0000079
:1000100060C000005EC000005CC000005AC000006C
:1000200058C0000056C000000C940C2452C00000C0
:1000300050C000004EC000004CC000004AC000008C
:1000400048C0000046C0000044C0000042C000009C
:1000500040C000003EC000000C9435163AC00000BD
:1000600038C0000036C0000034C0000032C00000BC
:1000700030C000002EC000002CC000002AC00000CC
:1000800028C0000026C0000024C0000022C00000DC
:1000900020C000001EC0000011241FBECFEFD0E121
:1000A000DEBFCDBF12E0A0E0B1E0E0E9F1E502C0C3
:1000B00005900D92A033B107D9F717E0A0E3B2E0A5
:1000C00001C01D92AF35B107E1F70E9449200C94A1
:1000D000C62896CF8EBD0DB407FEFDCF0895EF92D2
:1000E000FF920F931F93DF93CF93CDB7DEB7649743
:1000F0000FB6F894DEBF0FBECDBF7A8B698B5C8BD9
:100100004B8B880F991FDE01119620E1FD011192A2
:100110002A95E9F729893A89FC013196EE0FFF1FEC
:10012000EA0FFB1F318320832B893C89880F991F9D
:10013000A80FB91F2D933C9384B1866084B98CB508
:1001400082658CBD2C988E01015F1F4F7E01089443
:10015000E108F108F8018081BDDF025010400E1562
:100160001F05C1F72C9A64960FB6F894DEBF0FBE38
:10017000CDBFCF91DF911F910F91FF90EF90089528
:100180000F931F93DF93CF9300D000D0CDB7DEB78E
:100190009A8389837C836B8384B1866084B98CB5B0
:1001A00082658CBD2C9808E010E000FF03C08B81B5
:1001B0009C8102C089819A818DDF01501040A9F78E
:1001C0002C9A0F900F900F900F90CF91DF911F916D
:1001D0000F910895CF93DF93C1E0D0E0CE0160E0AE
:1001E00070E0CEDF2196C930D105C1F7DF91CF9104
:1001F000089589E090E060E070E0C2DF8BE090E07D
:1002000067E070E0BDDF609150078AE090E070E049
:10021000B7DF8CE090E061E070E0B2CF882311F4AA
:100220009EE728C0813011F490E324C0823011F49D
:100230009DE620C0833011F499E71CC0843011F48E
:1002400093E318C0853011F49BE514C0863011F497
:100250009FE510C0873011F490E70CC0883011F48E
:100260009FE708C0893011F49BE704C090E08A3012
:1002700009F491E0892F0895882329F1982F91504E
:10028000983008F090E0282F2950283008F0292FC6
:10029000982F9151983008F0922F282F295128300B
:1002A00008F0292F982F9152983008F0922F282F7C
:1002B0002952283008F0292F81E090E002C0880FF1
:1002C000991F2A95E2F708950F931F93182F062F71
:1002D000662399F1862F8150883010F090E004C099
:1002E000862FCADF182B912F802F8950883020F459
:1002F000802FC2DF182B912F802F8151883020F45E
:10030000802FBADF182B912F802F8951883020F44D
:10031000802FB2DF182B912F802F8152883020F44C
:10032000802FAADF182B912F802F8952883010F050
:10033000192F03C0802FA0DF182B812F1F910F9141
:1003400008950F931F93182F062F662309F439C0C1
:10035000862F8150883010F090E005C0862F8CDF0A
:1003600080951823912F802F8950883028F4802F72
:1003700083DF80951823912F802F8151883028F4B6
:10038000802F7ADF80951823912F802F8951883014
:1003900028F4802F71DF80951823912F802F8152B0
:1003A000883028F4802F68DF80951823912F802FC4
:1003B0008952883010F0192F04C0802F5DDF80959E
:1003C0001823812F1F910F9108950F931F93082FCA
:1003D0008823A9F18150883028F411B1802F4CDF97
:1003E000182B11B9802F8950883028F414B1802F30
:1003F00043DF182B14B9802F8151883028F417B1AE
:10040000802F3ADF182B17B9802F8951883028F4B4
:100410001AB1802F31DF182B1AB9802F8152883002
:1004200028F41DB1802F28DF182B1DB9802F895289
:10043000883028F410B3802F1FDF182B10BB1F91BA
:100440000F9108950F931F93082F882309F43BC041
:100450008150883030F411B1802F0EDF8095182341
:1004600011B9802F8950883030F414B1802F04DF07
:100470008095182314B9802F8151883030F417B13A
:10048000802FFADE8095182317B9802F8951883084
:1004900030F41AB1802FF0DE809518231AB9802F1E
:1004A0008152883030F41DB1802FE6DE809518230C
:1004B0001DB9802F8952883030F410B3802FDCDED4
:1004C0008095182310BB1F910F9108950F931F93D0
:1004D000082F8823A9F18150883028F412B1802F89
:1004E000CBDE182B12B9802F8950883028F415B133
:1004F000802FC2DE182B15B9802F8151883028F447
:1005000018B1802FB9DE182B18B9802F8951883087
:1005100028F41BB1802FB0DE182B1BB9802F81521D
:10052000883028F41EB1802FA7DE182B1EB9802F2B
:100530008952883028F411B3802F9EDE182B11BB0E
:100540001F910F9108950F931F93082F882309F48B
:100550003BC08150883030F412B1802F8DDE809501
:10056000182312B9802F8950883030F415B1802FAC
:1005700083DE8095182315B9802F8151883030F49F
:1005800018B1802F79DE8095182318B9802F8951F2
:10059000883030F41BB1802F6FDE809518231BB993
:1005A000802F8152883030F41EB1802F65DE809517
:1005B00018231EB9802F8952883030F411B3802F50
:1005C0005BDE8095182311BB1F910F9108950F9347
:1005D0001F93082F882311F490E037C08150883092
:1005E00010F090E005C010B1802F46DE982F9123C7
:1005F000802F8950883028F413B1802F3DDE982F4A
:100600009123802F8151883028F416B1802F34DE59
:10061000982F9123802F8951883028F419B1802F89
:100620002BDE982F9123802F8152883028F41CB123
:10063000802F22DE982F9123802F8952883028F432
:100640001FB1802F19DE982F9123892F1F910F91B1
:1006500008956817790728F49C01261B370BB90108
:1006600008C08617970718F060E070E002C0681BAA
:10067000790BCB0108954F925F926F927F928F9288
:100680009F92AF92BF92CF92DF92EF92FF920F9321
:100690001F932C017A015901681B790B80E090E0CF
:1006A0000E94F6263B014C01E418F50800E010E03A
:1006B000C801B7010E94F6269B01AC01C401B30139
:1006C0000E9462267B018C01CC24DD24C601B50189
:1006D0000E94F6269B01AC01C801B7010E94842745
:1006E0000E94CA26CB011F910F91FF90EF90DF90DF
:1006F000CF90BF90AF909F908F907F906F905F90C2
:100700004F900895AC0120E031E024C0CA01022ED0
:1007100002C0969587950A94E2F780FF0AC0E0919F
:100720001506F0E0EB5CFD4F818190915104890F3B
:10073000818380915104880F8093510480915104EA
:10074000882339F4809115068F5F809315063093C6
:1007500051042F5F2617D0F2089591B3809155066A
:10076000981719F08091550681BB90B380914D0484
:10077000981719F080914D0480BB9EB180917A0248
:10078000981719F080917A028EB99DB180914F022D
:10079000981719F080914F028DB99BB180914E044A
:1007A000981719F080914E048BB99AB18091520438
:1007B000981719F0809152048AB998B18091500429
:1007C000981719F08091500488B997B18091160656
:1007D000981719F08091160687B995B18091680431
:1007E000981719F08091680485B994B180915606E4
:1007F000981719F08091560684B992B180915402ED
:10080000981719F08091540282B991B180915002E9
:10081000981719F08091500281B908959ECF0895DC
:10082000893211F481E008958A3211F482E008954A
:100830008D3211F485E008958E3211F486E008952A
:100840008F3211F487E00895803311F488E0089521
:100850008D3111F489E008958F3111F48AE0089503
:10086000803211F48BE008958D3011F48CE00895FE
:100870008E3011F48DE008958F3011F48EE00895DC
:100880008B3211F483E008958C3211F080E00895EA
:1008900084E008959C01485F641738F4842F861B18
:1008A00002C0220F331F8A95E2F7461730F4641B0B
:1008B00002C0369527956A95E2F7C9010895282F59
:1008C000E82FF0E0EE0FFF1FCF0133E0880F991FF4
:1008D0003A95E1F7E80FF91FE259FB4F848188232D
:1008E00009F478C0E22FF0E0EE0FFF1FCF01B3E074
:1008F000880F991FBA95E1F7E80FF91FE259FB4FEE
:100900008481813019F42FEF30E066C0E22FF0E0EF
:10091000EE0FFF1FCF0173E0880F991F7A95E1F763
:10092000E80FF91FE259FB4F8481823019F42FEF51
:1009300031E052C0E22FF0E0EE0FFF1FCF0153E095
:10094000880F991F5A95E1F7E80FF91FE259FB4FFD
:100950008481833019F42FEF33E03EC0E22FF0E0C2
:10096000EE0FFF1FCF0133E0880F991F3A95E1F793
:10097000E80FF91FE259FB4F8481843019F42FEFFF
:1009800037E02AC0E22FF0E0EE0FFF1FCF01B3E007
:10099000880F991FBA95E1F7E80FF91FE259FB4F4D
:1009A0008481853019F42FEF3FE016C0E22FF0E08C
:1009B000EE0FFF1FCF0173E0880F991F7A95E1F7C3
:1009C000E80FF91FE259FB4F8481863019F42FEFAD
:1009D0003FE102C02FE730E0C9010895282FE82F3A
:1009E000F0E0EE0FFF1FCF01B3E0880F991FBA951B
:1009F000E1F7E80FF91FE259FB4F8481882309F4DE
:100A000078C0E22FF0E0EE0FFF1FCF0173E0880FF8
:100A1000991F7A95E1F7E80FF91FE259FB4F84819E
:100A2000813019F42FEF31E066C0E22FF0E0EE0FD5
:100A3000FF1FCF0153E0880F991F5A95E1F7E80F88
:100A4000F91FE259FB4F8481823019F42FEF33E014
:100A500052C0E22FF0E0EE0FFF1FCF0133E0880F0E
:100A6000991F3A95E1F7E80FF91FE259FB4F84818E
:100A7000833019F42FEF37E03EC0E22FF0E0EE0FA5
:100A8000FF1FCF01B3E0880F991FBA95E1F7E80F78
:100A9000F91FE259FB4F8481843019F42FEF3FE0B6
:100AA0002AC0E22FF0E0EE0FFF1FCF0173E0880FA6
:100AB000991F7A95E1F7E80FF91FE259FB4F8481FE
:100AC000853019F42FEF3FE116C0E22FF0E0EE0F72
:100AD000FF1FCF0153E0880F991F5A95E1F7E80FE8
:100AE000F91FE259FB4F8481863019F42FEF3FE361
:100AF00002C02FEF30E0C9010895282FE82FF0E061
:100B0000EE0FFF1FCF0173E0880F991F7A95E1F771
:100B1000E80FF91FE259FB4F8481882319F420E282
:100B200030E07AC0E22FF0E0EE0FFF1FCF0153E07C
:100B3000880F991F5A95E1F7E80FF91FE259FB4F0B
:100B40008481813019F420E430E066C0E22FF0E0C7
:100B5000EE0FFF1FCF0133E0880F991F3A95E1F7A1
:100B6000E80FF91FE259FB4F8481823019F420E825
:100B700030E052C0E22FF0E0EE0FFF1FCF01A3E004
:100B8000880F991FAA95E1F7E80FF91FE259FB4F6B
:100B90008481833019F420E031E03EC0E22FF0E0A0
:100BA000EE0FFF1FCF0163E0880F991F6A95E1F7F1
:100BB000E80FF91FE259FB4F8481843019F420E0DB
:100BC00032E02AC0E22FF0E0EE0FFF1FCF0143E03A
:100BD000880F991F4A95E1F7E80FF91FE259FB4F7B
:100BE0008481853019F420E034E016C0E22FF0E073
:100BF000EE0FFF1FCF0123E0880F991F2A95E1F721
:100C0000E80FF91FE259FB4F8481863019F02FEF6E
:100C100030E002C020E038E0C901089587E8809301
:100C20007A0080E480937C0098CD10927A00109234
:100C30007C0010927B0091CDCF93DF93EB01FC0100
:100C4000C115D10509F45BC0219131914191B8E002
:100C5000AFB7F8942D9A37FD01C02D9837FD00C02D
:100C6000000000000000000000000000330FBA95F3
:100C70002D9881F7B7E02D9A27FD01C02D9827FD0B
:100C800000C0000000000000000000000000220F73
:100C9000BA952D9881F700002D9A27FD01C02D9857
:100CA00027FD00C000000000000021913191B7E055
:100CB0002D98000000002D9A47FD01C02D9847FD9A
:100CC00000C0000000000000000000000000440F11
:100CD000BA952D9881F700002D9A47FD01C02D98F7
:100CE00047FD00C000000000B8E0219719F04191D5
:100CF0002D98B0CF00002D9800000000AFBFDF910D
:100D0000CF91089580914C0780FF05C087E196E060
:100D100064E170E091CF08950F931F93CF93DF9319
:100D200080914C0781FF18C000E018E0C0E0D0E0DF
:100D3000FE01E458FD4F808171DA482F802F90E04A
:100D4000612F70E050E0CBD9115011F40F5F18E023
:100D50002196C032D10561F7DF91CF911F910F919C
:100D600008951F93CF93DF93162FEC0197FF02C0D6
:100D7000C0E0D0E0812F32DE8C179D0718F4812F60
:100D80002DDEEC01CE01DF91CF911F9108950F93DD
:100D90001F93CF93DF93082F10E0C801880F991F8E
:100DA000FC01E456FD4FC081D181FC0123E0EE0F30
:100DB000FF1F2A95E1F7E80FF91FE259FB4F9081D9
:100DC0009F7081819923D9F19130C9F19230C9F591
:100DD00027DD982F8823A9F181508770805C80934C
:100DE0007C00892F90E0099724F080E280937B00BB
:100DF00002C010927B0080917A00806480937A0018
:100E000080917A0086FDFCCF609178002091790076
:100E1000922F80E070E0F801EE0FFF1F9F01B3E01A
:100E2000220F331FBA95E1F7E20FF31FE259FB4F90
:100E30004481862B972B6AE02DDDEC0102C0C0E0D7
:100E4000D0E0CE01DF91CF911F910F910895CF9304
:100E5000DF93EC01862F90E0FC0153E0EE0FFF1FC3
:100E60005A95E1F7E80FF91FEE0FFF1FE059FB4F0E
:100E7000808184FF05C0862FB1DD8C1B9D0BEC01AA
:100E8000CE01DF91CF910895CF93DF93AC01C62FB0
:100E9000D0E0FE01B3E0EE0FFF1FBA95E1F7EC0FD3
:100EA000FD1FEE0FFF1FE059FB4F60816F706F5FFA
:100EB000613099F1FE01EE0FFF1FE050FD4F808180
:100EC00091818F5F9F4F19F45183408320C08081AF
:100ED00091818417950770F42081318180819181FF
:100EE000DA01A81BB90BCD0170E00E941328260F70
:100EF000371F0BC02081318180819181841B950B2C
:100F000070E00E941328261B370B31832083CC0FFF
:100F1000DD1FC050DD4F48815981CA01DF91CF915B
:100F200008957F928F929F92AF92BF92CF92DF925D
:100F3000EF92FF920F931F93CF93DF93EC01C62E96
:100F4000262F30E0F901B3E0EE0FFF1FBA95E1F76D
:100F5000E20FF31FEE0FFF1FE059FB4F708040EED2
:100F6000742209F4CBC0C901880F991FDC0163E02A
:100F7000AA0FBB1F6A95E1F7A80FB91FA259BB4F73
:100F80001C960D911C911D971E968D909C901F97FD
:100F90001E96AD90BC901F975096ED90FC90519787
:100FA000808184FF0AC01A96DC901A975FE0D522F0
:100FB0001A964C9142954F7009C01A964C911A9707
:100FC0004F701A96DC90D2945FE0D522F901EE0FB3
:100FD000FF1FCF0123E0880F991F2A95E1F7E80F43
:100FE000F91FE259FB4F23852F7019F130E0C4013E
:100FF000801B910BBC01269FC001279F900D369F3F
:10100000900D112464E670E00E941328861A970A56
:10101000C7018A199B09BC01269FC001279F900D1B
:10102000369F900D112464E670E00E941328A60EEE
:10103000B71E4423C9F0242F30E0C701801B910B59
:10104000AC01249FC001259F900D349F900D112469
:1010500064E670E00E941328060F171FC017D1071F
:1010600018F4C0E0D0E04AC0DD20C9F09701201B91
:10107000310B8D2D90E0BC01269FC001279F900D64
:10108000369F900D112464E670E00E941328E61A42
:10109000F70AEC16FD0618F48C2DA0DC2EC070E2C9
:1010A000771619F080E6781609F5C815D90530F0DD
:1010B000AC16BD0630F08C2D02DC1FC0AC16BD0690
:1010C00070F48C2DFCDB8C018C2DF9DB9C01C501AF
:1010D000BE01A701D0DAE801C80FD91F0FC08C2DBF
:1010E000EEDB9C01C801BE01A40106C08C2D76DC9C
:1010F0009C01C801BE01A701BEDAEC01CE01DF915F
:10110000CF911F910F91FF90EF90DF90CF90BF9004
:10111000AF909F908F907F9008952F924F925F9203
:101120006F927F928F929F92AF92BF92CF92DF92F7
:10113000EF92FF920F931F93DF93CF93CDB7DEB75C
:101140002A970FB6F894DEBF0FBECDBF98878F8366
:10115000262EE62FF0E0EE0FFF1FCF01A3E0880F51
:10116000991FAA95E1F7E80FF91FE259FB4FE185B6
:10117000EE2309F48DC100916A05E1502E2F30E075
:101180003E832D83862FB9DCBC015C0110E00D800D
:1011900002C0159507950A94E2F700FD93C18F816F
:1011A00098850E941328262F30E02A9D60012B9DF0
:1011B000D00C3A9DD00C1124A9014F5F5F4FED81F7
:1011C000FE81EE0FFF1F8D819E81E80FF91FEE0F4C
:1011D000FF1FEE0FFF1FE259FB4F2E0F3F1F2C5436
:1011E0003F4FD901EC90FF24E40FF51FEC54FF4F63
:1011F000808190E08E199F092F8138852C193D0937
:101200004A9DB0014B9D700D5A9D700D11246C19B3
:101210007D09FC01E29FC001E39F900DF29F900DBC
:1012200011240E942728E60EF71E0027F7FC0095E0
:10123000102F8F8198859C0140E050E0C801B701D4
:101240000E94E72724E630E040E050E00E943A2880
:10125000C901DA0189839A83AB83BC8315C1822DCE
:101260002EDBAF81B8858A1B9B0B69857A850E942E
:101270001328262F30E0E985FA852E9F60012F9FE5
:10128000D00C3E9FD00C112489010F5F1F4FED81C0
:10129000FE81EE0FFF1F4D815E81E40FF51FEE0F03
:1012A000FF1FEE0FFF1FE259FB4F2E0F3F1F2C5465
:1012B0003F4FD901EC90FF24E00FF11FEC54FF4F9A
:1012C0006080822DFCDA4C01822DF9DA2C01822D0E
:1012D000F6DA5C01920140E050E029833A834B83C7
:1012E0005C8377246E187F084F815885841A950A8D
:1012F0008C189D0889859A85089FB001099F700DFB
:10130000189F700D11246C197D09689CC001699C9F
:10131000900D789C900D11240E942728E60EF71E50
:101320000027F7FC0095102FAF81B885AA1ABB0AD9
:10133000CC24DD24C801B701A60195010E94E7274E
:1013400024E630E040E050E00E943A2889819A810A
:10135000AB81BC81821B930BA40BB50B89839A8351
:10136000AB83BC83822DABDAAF81B885A817B907F0
:1013700039F49D0140E050E029833A834B835C833C
:10138000822D9DDAAF81B8858A179B0708F07CC053
:10139000822D95DAEF81F885E81BF90BCF0169857D
:1013A0007A850E941328262F30E049855A85249F8C
:1013B0008001259F100D349F100D112429010894E0
:1013C000411C511CED81FE81EE0FFF1F8D819E811E
:1013D000E80FF91FEE0FFF1FEE0FFF1FE259FB4F43
:1013E0002E0F3F1F2C543F4FD901EC90FF24E40DEA
:1013F000F51DEC54FF4FC080822D61DA3C01822D37
:101400005EDA4C01822D5BDA9C01DD24CE18DF0808
:101410008F81988586199709801B910BE985FA853C
:101420004E9EB0014F9E700D5E9E700D1124601B8C
:10143000710BAC01C49EC001C59E900DD49E900D51
:1014400011240E942728E60EF71E0027F7FC0095BE
:10145000102F8F819885821B930B9C0140E050E0F8
:10146000C801B7010E94E72724E630E040E050E0E1
:101470000E943A28AA24BB24280D391D4A1D5B1D51
:1014800029833A834B835C83A981BA81B887AF8370
:101490008F8198852A960FB6F894DEBF0FBECDBF18
:1014A000CF91DF911F910F91FF90EF90DF90CF9040
:1014B000BF90AF909F908F907F906F905F904F9074
:1014C0002F90089562E070E00E94272869877A874C
:1014D000822DF5D9EF81F885E817F90708F4BFCE1A
:1014E00019821A821B821C823DCF1F93AC01A62F4A
:1014F000B0E09D01220F331FF90163E0EE0FFF1FE3
:101500006A95E1F7E20FF31FE259FB4F81858823CB
:1015100009F49AC0F901E456FD4F60817181815050
:1015200090E0FC01EE0FFF1FE80FF91FEE0FFF1F09
:10153000EE0FFF1FE259FB4FE354FF4F81911191D2
:101540003081882309F480C0E82FF0E0E559FA4F94
:10155000818D80FD02C020E00DC0FD01EE0FFF1F58
:10156000E451FD4F808191818F5F9F4F11F4518332
:10157000408321E0FD01EE0FFF1FE852FD4F808107
:1015800091818417950730F480819181E42FE81BC5
:101590008E2F03C080819181841B222371F4FD0171
:1015A000B896381708F453C0EE0FFF1FE456FD4FEE
:1015B0008FEF9FEF9183808347C04617570739F419
:1015C000AA0FBB1FA852BD4F4D915C913DC0FD01BC
:1015D000EE0FFF1FE451FD4F808191818417950725
:1015E00080F42081318180819181BA01681B790B5F
:1015F000CB01612F70E00E941328AB01420F531FF3
:1016000023C02081318180819181841B950B612FC2
:1016100070E00E941328A901461B570B15C0AA0FA2
:10162000BB1FA852BD4F8D919C911197E32FF0E005
:101630008417950728F44D915C914E0F5F1F04C0ED
:101640004D915C914E1B5F0BCA011F910895EE0FE7
:10165000FF1FE456FD4F808191818F5F9F4FF9F608
:10166000F3CFEF92FF921F93CF93DF937C01A62FCE
:10167000B0E09D01220F331FF90183E0EE0FFF1F41
:101680008A95E1F7E20FF31FE259FB4F138512959C
:101690001F70C1F1E901CC53DD4F88819981A90107
:1016A00044595A4F8F5F9F4FD1F4FA01858196813B
:1016B000F901E456FD4F208131818217930711F51E
:1016C000FA0125813681AA0FBB1FA055BD4F8D9110
:1016D0009C9128173907B1F4858196810EC0FA01D3
:1016E00085819681688179810E942903212F30E0CC
:1016F0002817390728F48FEF9FEF9983888302C05A
:10170000E880F980C701DF91CF911F91FF90EF90A2
:101710000895CF93DF939C01462F50E0CA01880FB4
:10172000991FDC0173E0AA0FBB1F7A95E1F7A80FA0
:10173000B91FA259BB4F8C918F70813009F06FC0D7
:1017400016969C9116971796EC911797E15018965C
:101750007C91EE2331F0F0E0E459FA4F818D80FD69
:101760005BC09150C92FD0E0FE01E459FA4F818D42
:1017700080FF17C0FA01EE0FFF1FE852FD4F2081D6
:101780003181FA01EE0FFF1FCF01A3E0880F991FEF
:10179000AA95E1F7E80FF91FE259FB4F8581280F61
:1017A000311D7150A72FB0E0FD01E459FA4F818D32
:1017B00080FF17C0FA01EE0FFF1FE852FD4F208196
:1017C0003181FA01EE0FFF1FCF0173E0880F991FDF
:1017D0007A95E1F7E80FF91FE259FB4F8581281B45
:1017E0003109FA01EE0FFF1FCF0143E0880F991F67
:1017F0004A95E1F7E80FF91FE259FB4F87818823EB
:1018000071F4C459DA4F898D80FD09C0A459BA4FCB
:1018100059968C9180FD03C0862F51D89C01C90137
:10182000DF91CF9108951F93CF93DF93182FC82F87
:10183000D0E09E01220F331FD90163E0AA0FBB1F26
:101840006A95E1F7A20FB31FA259BB4F8C91FE011D
:1018500053E0EE0FFF1F5A95E1F7EC0FFD1FEE0F5F
:10186000FF1FE059FB4F40818F70813031F4F90147
:10187000E852FD4F40815181A3C0F901E459FA4F6C
:101880000580F681E02D1E968D919C911F978F5FAC
:101890009F4F21F41F96FC93EE931E97842F807E1A
:1018A000803229F0803419F0882309F03EC0CE013F
:1018B000880F991FDC0123E0AA0FBB1F2A95E1F7CF
:1018C000A80FB91FA259BB4F1C968D919C911D97D3
:1018D0008F5F9F4F39F01C968D919C911D97E81753
:1018E000F90720F41D96FC93EE931C97CE01880F08
:1018F000991FDC0163E0AA0FBB1F6A95E1F7A80FEF
:10190000B91FA259BB4F50968D919C9151978F5FF3
:101910009F4F39F050968D919C9151978E179F074C
:1019200020F45196FC93EE935097CE01880F991FA7
:10193000DC0143E0AA0FBB1F4A95E1F7A80FB91FCE
:10194000A259BB4F1C968D919C911D97E817F907E2
:1019500020F41C96ED91FC911D97CE01880F991FE4
:10196000DC0123E0AA0FBB1F2A95E1F7A80FB91FDE
:10197000A259BB4F50968D919C9151978E179F07FE
:1019800020F45096ED91FC915197CF01612F69DEC3
:10199000AC01DE01AA0FBB1F9D0124563D4FF9018A
:1019A00080819181FD01E055FD4F91838083A45991
:1019B000BA4F15968D919C911697F901918380836A
:1019C000FFEF4F3F5F0719F420E030E01BC0CA0172
:1019D000612F5ADA612FA5DA612F39DA612F9DDB89
:1019E000612F83DD612F95DE612FBBD99C01CC0F68
:1019F000DD1FFE01E852FD4F91838083CB51DA4F0A
:101A000099838883C901DF91CF911F910895282F71
:101A100030E0F901EE0FFF1FEE0FFF1FE459F94F01
:101A20008081882309F45DC0E081F0E0E559FA4F38
:101A3000818D220F331F220F331F80FF18C0D90161
:101A4000A85AB94F5796EC915797F0E0E559FA4FDD
:101A5000818D80FF02C081E008955696EC91F0E000
:101A6000E559FA4F818D80FF3CC087E00895D90188
:101A7000A85AB94F5596EC915597F0E0E559FA4FB1
:101A8000818D80FF17C05796EC915797F0E0E5598C
:101A9000FA4F818D80FF02C083E008955696EC9145
:101AA000F0E0E559FA4F818D80FD02C084E0089591
:101AB00085E008955796EC915797F0E0E559FA4F75
:101AC000818D80FF02C082E008955696EC91F0E08F
:101AD000E559FA4F818D80FD02C08FE0089586E0C0
:101AE000089580E00895AF92BF92CF92DF92EF9277
:101AF000FF920F931F93CF93DF93C0E0D0E054E6A3
:101B0000A52EB12C9E01220F331F220F331F285AFE
:101B1000394FF901EE51FF4F8081882309F463C0EA
:101B2000D901AD51BF4F8C91882309F45CC040812D
:101B30000C91015010E0C801880F991FFC01E45975
:101B4000FA4FC580D680FC0123E0EE0FFF1F2A95D7
:101B5000E1F7E80FF91FE259FB4FE484F58480892F
:101B6000918924853585821B930B64E670E00E9481
:101B70001328C6018E199F090E9413289B01F801A2
:101B800083E0EE0FFF1F8A95E1F7E00FF11FEE0FE4
:101B9000FF1FE059FB4F808184FF04C0C501861BF5
:101BA000970B9C01FE01EE0FFF1FEE0FFF1FE45C81
:101BB000F84F808190E028173907A8F0FE01EE0F5A
:101BC000FF1FEE0FFF1FE35CF84F808190E082174C
:101BD000930748F04150E42FF0E0E459FA4F818D2B
:101BE0008C7F8F5F818F2196C430D10509F08ACF19
:101BF000DF91CF911F910F91FF90EF90DF90CF90E9
:101C0000BF90AF90089515BC10926E00089585E0C6
:101C100085BD8CE988BD84E080936E0008951F9394
:101C20002FE088E190E00FB6F894A89580936000CB
:101C30000FBE2093600010E880E090E00FB6F894AB
:101C400010936100809361000FBEE1DF15BF15BFE7
:101C50000E94AD031F91089580915302882321F0C3
:101C60001092810010928000089580915302882381
:101C7000A1F0809181008960809381008091800033
:101C8000806180938000109285001092840081E032
:101C900090E0909389008093880008950F931F939C
:101CA000CF93DF9340E050E0DA01AA0FBB1FA85D9D
:101CB000B84F8C91882309F449C0FA01EE0FFF1F39
:101CC000E75DF84F8081882309F440C08C919081B2
:101CD000DA01A65ABC4F2C918150682F70E0FB01AD
:101CE000E459FA4F318D9150092F10E0E801C459A1
:101CF000DA4F898D3170330F8170380F818D8C7F71
:101D0000818F898D8C7F898F23702317F9F08C91B7
:101D1000880F880F8C938C913370830F8C938C91E8
:101D2000883721F4818D8F5F818F198EFA01E65AF1
:101D3000FC4F80818D3251F4F801E459FA4F818DC6
:101D40008F5F818F64597A4FFB01118E4F5F5F4F18
:101D50004630510509F0A8CFDF91CF911F910F9127
:101D60000895CF93DF93282F30E0F901E85AF94F17
:101D7000848D882309F4B0C0E559FF4F4081477036
:101D8000808190E08871907063E0959587956A9561
:101D9000E1F7E82F882301F1F0E0EF5DF84F908143
:101DA0009F778081807861F4E92FF0E0E559FA4F60
:101DB000818D90E083709070892B09F090C00CC0E9
:101DC000803809F08CC0E92FF0E0E559FA4F818D99
:101DD0008370833009F083C083E0D901A85AB94FDA
:101DE0005C96EC915C97F0E0E559FA4F918D937019
:101DF000A559BF4FEC91F0E0E076F07055E0F69514
:101E0000E7955A95E1F7EC5DF84F50816C914423CA
:101E100029F4913091F09330F1F50FC0413021F465
:101E200091509230C0F509C0423019F4913099F5C3
:101E300004C0433089F4923071F5833061F5F901C3
:101E4000E456FD4FEE59FE4F8081E256F140882363
:101E500011F5EC53FF4F0BC0453069F4913011F090
:101E60009330C9F48330B9F4F901E05AFC4F808112
:101E70008F5F808310C0443071F4913049F5833016
:101E800039F5F901E155FC4F8081882311F010826A
:101E90001FC090831DC0F901E456FD4FEF01CE59DC
:101EA000DE4F8881882319F0ED5EFE4F14C0DF01FC
:101EB000AC53BF4F8C91ED5EFE4F882331F08C9177
:101EC00081508C9381E0808302C0108267FD58832B
:101ED00021553C4FF9018081DF91CF91089580E039
:101EE0007CCF682780E02DE1962F990F67FF03C014
:101EF000692F622701C0692F8F5F8830A9F7862F6D
:101F00000895CF93DF93EC0142E050E0A0E0B0E011
:101F10006150704010C0CF01022E02C09595879588
:101F20000A94E2F780FD11962F5F3F4F283031056C
:101F300091F74F5F5F4F4617570748F4FE01E40FD4
:101F4000F51F8081E82FF0E020E030E0E4CFCD0104
:101F5000DF91CF910895CF92DF92EF92FF920F938E
:101F60001F93CF93DF939C0177FD03C040E050E0C7
:101F700008C0709561957F4F309521953F4F44E0A3
:101F800059E237FF08C088279927821B930B4E57C9
:101F90005B4E9B01BC01E1E0EE2EE1E0FE2EE9018B
:101FA000DB01CC24DD24F7010081118177FF13C010
:101FB000401B510B0C2C02C0359527950A94E2F773
:101FC000A20FB31F0C2C02C0759567950A94E2F717
:101FD000C61BD70B12C0400F511F0C2C02C03595E9
:101FE00027950A94E2F7A21BB30B0C2C02C075953F
:101FF00067950A94E2F7C60FD71F0894C11CD11C3D
:1020000082E090E0E80EF91EBD019E019CE0C91639
:10201000D10449F6CA01DF91CF911F910F91FF9032
:10202000EF90DF90CF90089580E00C94E5011F932E
:10203000182FE9DD23982B9884B1866084B985B187
:10204000897F85B9812F0E94A3021F910895FF9275
:102050000F931F93F82E162F042FD5DD812F0E948A
:102060002202812F0E94A302219A29988F2D0E947B
:10207000A3021AE1812F8A95F1F7007C003831F430
:102080008F2D0E946602812F8A95F1F71F910F9183
:10209000FF900895FF920F931F93F82E00E010E039
:1020A000110F8F2D0E94E70281111160299A000003
:1020B000000000000000000000000000000029985F
:1020C00000000000000000000F5F083049F7812F7A
:1020D0001F910F91FF90089594B1917F94B995B19C
:1020E000917F95B90E94660292CD8F929F92AF9296
:1020F000BF92CF92DF92EF92FF920F931F93CF93F5
:10210000DF930E940E04BB24CC24DD2415E3A12E12
:10211000E601C85AD94F8E01065F1F4F8A85882372
:1021200009F450C08A850E9422028A850E946602B4
:10213000EE24FF244801E701C85AD94F888188233B
:1021400079F188810E94E50188810E94A3028A2D8D
:102150008A95F1F7F40180810E94E702182FF401BB
:1021600080810E943C01EB2DF0E0E459FA4F918D03
:10217000990F918F1095182319F0818D8F5F818FA2
:10218000B394FFE5FB1508F4BB248701085A194FE7
:10219000F80180810E942202F80180810E94A3023E
:1021A0000894E11CF11CFAE0EF16F10421F6860117
:1021B000085A194FF80182850E942202F80182858F
:1021C0000E94A3020894C11CD11CFAE0CF16D104CE
:1021D00009F09ECF88249924B5E0AB2E6401CC0C85
:1021E000DD1C8601080D191D085A194FE801C4525B
:1021F000DF4F8881882309F4ABC00E9415068881CF
:10220000FDEDEF2EF12CE00EF11EF7016081025280
:102210001F4FF80140811BDFF80100810F7311E0AF
:10222000E6018DC0F701808135DF382F30958A2D8A
:102230008A95F1F7EB2DF0E0E459FA4F818D880F84
:10224000818F232F30FF03C0818D8F5F818F9B2D66
:102250009F5F903608F090E0E92FF0E0E459FA4FE4
:10226000818D880F818F21FF03C0818D8F5F818FCA
:102270009F5F903609F490E0E92FF0E0E459FA4FBF
:10228000818D880F818F22FF03C0818D8F5F818FA9
:102290009F5F903609F490E0E92FF0E0E459FA4F9F
:1022A000818D880F818F23FF03C0818D8F5F818F88
:1022B0009F5F903609F490E0E92FF0E0E459FA4F7F
:1022C000818D880F818F24FF03C0818D8F5F818F67
:1022D0009F5F903609F490E0E92FF0E0E459FA4F5F
:1022E000818D880F818F25FF03C0818D8F5F818F46
:1022F0009F5F903609F490E0E92FF0E0E459FA4F3F
:10230000818D880F818F26FF03C0818D8F5F818F24
:102310009F5F903609F490E0E92FF0E0E459FA4F1E
:10232000818D880F818F37FF03C0818D8F5F818FF3
:10233000B92EB394F0E6BF1609F4BB241F5F011752
:1023400008F070CFC80DD91DCC5CD84F8881C4DE91
:102350000894811C911C82E08816910409F03ECFFC
:10236000DF91CF911F910F91FF90EF90DF90CF9071
:10237000BF90AF909F908F900895382F20E080E01D
:1023800037FF03C095B1946002C095B19B7F95B9AA
:10239000299A880F000000000000000000000000E3
:1023A000000000000000000000000000000000002D
:1023B000000029981B9981602F5F283011F0330F9E
:1023C000DFCF0895382F20E080E037FD03C094B1BF
:1023D000986002C094B1977F94B9299A880F000041
:1023E00000000000000000000000000000000000ED
:1023F00000000000000000000000000029981B9968
:1024000081602F5F283011F0330FDFCF08952F92B6
:102410003F924F925F926F927F928F929F92AF9274
:10242000BF92CF92DF92EF92FF920F931F93CF93C1
:10243000DF93E82E482E5524C201880F991FFC0116
:10244000E456FD4F80809180EC0123E0CC0FDD1F2E
:102450002A95E1F7C80FD91FC259DB4F88816880E0
:102460002FE062229981662009F47FC331E0631670
:1024700009F47BC392E0691619F48080918078C3D7
:10248000782E72949FE07922E3E06E1609F5898137
:10249000CEDD80E072DF082F80E06FDFF82E8981CB
:1024A0001BDE10E00F7310701695102F0027179584
:1024B0000795FFE7FF224C81C8018F0D911D6DE04C
:1024C0000E944A044C018E2D0E94EE041C0154C24D
:1024D00024E06216E1F48981AADD80E04EDF082F56
:1024E00080E04BDFF82E8981F7DDF69410E00F7164
:1024F00010701695102F0027179507954C81C8016D
:102500008F0D911D6CE00E944A044C01ACC035E077
:10251000631609F042C089818ADD81E0781619F4DA
:10252000A0EDAA2E07C092E0791619F4F0EFAF2EB5
:1025300001C0AA248A2D21DF082F80E01EDFC82ECB
:1025400080E01BDFB82EC201880F991F7C0173E069
:10255000EE0CFF1C7A95E1F7E80EF91EEEE6F4E0CA
:10256000EE0EFF1EF7018181B7DD10E007701070DD
:10257000102F0027110FBB1CBB24BB1C0B0D111D02
:10258000DD24CC0CDD1CF7014481C8018C0D9D1DA0
:102590006CE00E944A044C0167C0F6E06F1609F037
:1025A00062C0898144DD21E0721609F4F5C232E08F
:1025B000731611F488EC1DC083E0781611F480EDD9
:1025C00018C094E0791609F4E9C2E5E07E1611F42A
:1025D00080EE0FC080E0F6E07F1611F488EE09C0AF
:1025E00027E0721611F480EF04C038E0731609F486
:1025F00088EFC3DE082F80E0C0DEC82E80E0BDDE9D
:10260000B82EC201880F991F7C0133E0EE0CFF1C2D
:102610003A95E1F7E80EF91E8EE694E0E80EF91E11
:10262000F701818159DD10E001701070102F002733
:10263000110F110F110FB294B69497E0B9220B0D40
:10264000111DDD2483E0CC0CDD1C8A95E1F7F70138
:102650004481C8018C0D9D1D6CE00E944A044C0110
:102660002224332489C1AA2422243324F7E06F16BC
:1026700009F05FC0F201EE0FFF1FCF0113E0880FDA
:10268000991F1A95E1F7E80FF91FE259FB4F818175
:10269000CEDC21E0721619F4B0E8AB2E11C032E0A6
:1026A000731619F4A0E9AA2E0BC083E0781619F46A
:1026B000F0EAAF2E05C094E0791611F4E0EBAE2EEF
:1026C0008A2D5BDE082F80E058DEC82E80E055DEC4
:1026D000B82EC201880F991F7C0163E0EE0CFF1C2D
:1026E0006A95E1F7E80EF91EEEE6F4E0EE0EFF1E45
:1026F000F7018181F1DC10E001701070102F0027CC
:10270000110F110F110FB294B69447E0B4220B0DC4
:10271000111DDD2433E0CC0CDD1C3A95E1F7F70107
:102720004481C8018C0D9D1D6CE00E944A044C013F
:1027300023C1F8E06F1609F04FC0C201880F991F3E
:102740007C0103E0EE0CFF1C0A95E1F7E80EF91E90
:102750002EE634E0E20EF31EF701818168DC80EDA5
:102760000CDED82E80E009DE082F80E006DEAD2CDE
:10277000BB24F7E0AF22BB24BA2CAA24BB0C881FD1
:102780008827881FA80EB11C10E0000F111FA00E93
:10279000B11EF7018181A0DCF701818148DC80EF67
:1027A000ECDDD82E80E0E9DD082F80E0E6DDCD2DE0
:1027B000D0E0C770D070DC2FCC27DD0F881F8827B2
:1027C000881FC80FD11D10E0000F111FC00FD11FAF
:1027D000F701818181DC52C1F9E06F1609F07BC0FD
:1027E00021E0721621F400ECE8EC7E2E17C032E0F6
:1027F000731621F400ED78ED772E10C083E0781683
:1028000021F400EE68EE762E09C094E0791621F4EA
:1028100000EF58EF752E02C000E07724C201880F48
:10282000991F7C0133E0EE0CFF1C3A95E1F7E80EAE
:10283000F91EEEE6F4E0EE0EFF1EF7018181F7DBF4
:10284000802F9BDDC82E80E098DD082F80E095DD8D
:10285000D82EF701818140DCAC2CBB24F1E0AF2203
:10286000BB24BA2CAA24BB0CBB0CBB0CD294D694B0
:1028700097E0D922AD0CB11C10E083E0000F111FCE
:102880008A95E1F7A00EB11EF7018181D0DB872D7B
:1028900074DDC82E80E071DD082F80E06EDDD82E5B
:1028A000F701818119DCCC2DD0E0C170D070DC2F14
:1028B000CC27DD0FDD0FDD0FD294D694B7E0DB22FD
:1028C000CD0DD11D10E0A3E0000F111FAA95E1F777
:1028D000C00FD11FD3C0FAE06F1609F04DC0C2017E
:1028E000880F991F8C01E3E0000F111FEA95E1F7B3
:1028F000080F191F02591B4FF801818198DB80E0F6
:1029000061DD8CE85FDD8FEF5DDDD82E8FEF5ADD66
:10291000E82E8FEF57DDC82E8FEF54DDB82E8FEFE6
:1029200051DDF82EF8018181D7DB8FEF60E0D9DA35
:102930006CE8D7DA6D2DD5DA6E2DD3DA6C2DD1DABD
:102940006B2DCFDA80958F1509F054C09E2D80E055
:10295000EC01CD0DD11DFFEFCF3FDF0709F408C11A
:102960009B2D80E05C01AC0CB11C2FEFA2162FEF69
:10297000B20609F083C0FCC0AA24BB24C0E0D0E0AA
:102980003BE0631609F07AC0C201880F991F8C01E1
:1029900063E0000F111F6A95E1F7080F191F025934
:1029A0001B4FF801818143DB80E00CDD8CE80ADD00
:1029B0008FEF08DDD82E8FEF05DDB82E8FEF02DD0B
:1029C000C82E8FEFFFDCE82E8FEFFCDCF82EF8012D
:1029D000818182DB8FEF60E084DA6CE882DA6D2D32
:1029E00080DA6B2D7EDA6C2D7CDA6E2D7ADA8095AA
:1029F0008F1539F0F201E55FF94F80818F5F808399
:102A0000B7C09B2D80E0EC01CD0DD11DFFEFCF3F76
:102A1000DF0709F4ADC09E2D80E05C01AC0CB11C59
:102A20002FEFA2162FEFB20609F4A2C031E0731601
:102A300011F44E0104C082E0781609F445019FEFBD
:102A400089169FE7990620F094012050304C03C06E
:102A500094012150304CF201EE0FFF1FCF0143E0F3
:102A6000880F991F4A95E1F7E80FF91FE259FB4FCC
:102A70004481C9016FE00E944A044C01262D285070
:102A8000233070F5D201AA0FBB1FAC5EBC4F8D91F5
:102A90009C911197A816B90619F1F201EE0FFF1FCC
:102AA000E85DFC4F80819181C817D907C9F0CA152C
:102AB000DB05B1F01196BC92AE92D183C083223077
:102AC00031F0C050D840E0E0F8EFAE0EBF1ECE01AE
:102AD000B50141DA4C0178E0272E72E5372E04C0AB
:102AE0002114310409F444C0E201CC0FDD1FC45CA1
:102AF000DC4F68817981C4010E9429039101220F72
:102B0000331F220D331D369527953695279582174D
:102B1000930790F088819981F201E456FD4F881661
:102B2000990628F4EC54FF4F80818F5F04C0EC5469
:102B3000FF4F808181508083F201EE0FFF1FE45C24
:102B4000FC4F9182808220E533E0420E531EF20159
:102B5000808190E09C01229EC001239E900D329EB8
:102B6000900D1124880E991E03C088248A94982CF5
:102B7000C401DF91CF911F910F91FF90EF90DF90F3
:102B8000CF90BF90AF909F908F907F906F905F900D
:102B90004F903F902F90089580EC2BCD88ED29CD5C
:102BA0000F931F93CF93DF9380915406882349F1AD
:102BB0005CD880E293E00197F1F70E94150600E0EF
:102BC00010E0E801CC0FDD1FFE0163E0EE0FFF1FF8
:102BD0006A95E1F7EC0FFD1FE259FB4F808190E011
:102BE0008F70907003973CF0802F11DCFE01E45948
:102BF000FA4F968385830F5F1F4F0A30110509F73F
:102C00002BD880916B05882331F10E94030E0E941E
:102C10000E0600E010E0E801CC0FDD1FFE0143E0EE
:102C2000EE0FFF1F4A95E1F7EC0FFD1FE259FB4F36
:102C300080818F70823041F4802F0E94C706FE0190
:102C4000E459FA4F968385830F5F1F4F0A301105B1
:102C500011F70E94070EDF91CF911F910F910895F8
:102C60009FDF43DA1BD80C94730D1F920F920FB69F
:102C70000F9211242F933F934F935F938F939F93C2
:102C8000AF93BF93CF93DF93EF93FF9316BC8091E5
:102C9000300290913102019690933102809330027C
:102CA0008091300290913102059708F47DC0109216
:102CB00031021092300280913202909133020196DB
:102CC0009093330280933202809153068F5F8093FA
:102CD000530620E030E0A90144565D4FEA01CE5989
:102CE000DE4F8881882321F1888181508883888103
:102CF0008823F1F4D901AD53B94F8C91877084309A
:102D0000B9F0FA01ED5EFE4F8081813089F41082C6
:102D1000EC918C9187FF0CC0F0E0E076F070A5E0BC
:102D2000F695E795AA95E1F7EC5DF84F80818883E9
:102D30002F5F3F4F2F34310571F680913202909111
:102D40003302449788F1109233021092320280913C
:102D500070058F5F80937005809170058B3338F01C
:102D60001092700580916F058F5F80936F05809141
:102D70006F058B3338F010926F0580916E058F5F71
:102D800080936E0520E030E0F901E459FA4FDF014D
:102D9000A156BF4F8C91EB56FF4F80831C922F5F43
:102DA0003F4F2A30310581F7FF91EF91DF91CF91AD
:102DB000BF91AF919F918F915F914F913F912F91D3
:102DC0000F900FBE0F901F90189508950895CF9300
:102DD000DF9381E08093350280E090E0FC01EB5CC2
:102DE000FD4F1182019688319105C1F710921506A9
:102DF00081E080935104C0E0D0E0FE01EE0FFF1FA0
:102E0000CF0133E0880F991F3A95E1F7E80FF91FDA
:102E1000E259FB4F80818823A1F08C2F0E94130C74
:102E2000FE01EE0FFF1F9F01B3E0220F331FBA9583
:102E3000E1F7E20FF31FE259FB4F6481685F0E94E4
:102E400082032196C830D105C1F680916C06882393
:102E500039F080E00E94070D90E064E00E94820358
:102E600080917006882339F081E00E94070D90E080
:102E700064E00E948203C0E0D0E0FE01E85AF94F0E
:102E8000848D882339F08C2F0E94B10E90E061E090
:102E90000E9482032196C034D10579F7DF91CF914A
:102EA00008958091E00081608093E0000E9490236B
:102EB0008FEF93E063E00E949D2820E040E951E01D
:102EC00009C0FA013197F1F70197D9F7A8952F5F5B
:102ED000223319F088EE93E0F4CFF8942EE088E1E5
:102EE00090E00FB6F894A895809360000FBE2093F1
:102EF0006000FFCF0F931F93E0EEF0E080818160D0
:102F000080830E949023F89481E08093E00080E227
:102F10008093D80009EC10E0F80110821DBA1092DD
:102F200068001CBC10BE1FBA10927A000E94030EEB
:102F30000E942C0E10927100F80110821092BC00B9
:102F400010928100109280000E94AD038FEF93E0F9
:102F500060E00E949D280C9400381F910F91089505
:102F60000C94B22008950F931F93CF93DF93EC013D
:102F7000062F4F704093E9001FEF8091E80085FF16
:102F80000EC0CE01602F70E040E050E00E94B322FE
:102F90008091E8008E778093E80081E007C01150AF
:102FA000A8950E944D26112341F780E0DF91CF9133
:102FB0001F910F910895FF920F931F93CF93DF936B
:102FC000C8E0D0E01C2F0D2FFE01EE0FFF1FCF0138
:102FD00033E0880F991F3A95E1F7E80FF91FE2599E
:102FE000FB4F8081882309F44CC08C2F0E94130C66
:102FF000FE01EE0FFF1F9F01B3E0220F331FBA95B2
:10300000E1F7E20FF31FE259FB4F6481685F40E094
:103010000E944A04282FFE01EE0FFF1FCF0173E02C
:10302000880F991F7A95E1F7E80FF91FE259FB4FD6
:103030008381813059F42F5720936B04215880915C
:103040006B0469E10E94062880936B04E12FF02F46
:10305000EE0FFF1FCF0153E0880F991F5A95E1F73C
:10306000E80FF91FE259FB4F8381823051F42F574B
:1030700020936C0480916C0469E10E94062880937F
:103080006C042196CA30D10509F09CCFC0E0D0E095
:1030900010E4FF24F3940FEFFE01EE5EF84F808101
:1030A000813051F4812F0E94B10E882329F0809144
:1030B0006A04816080936A04FE01EE5EF84F8081AD
:1030C000823051F4812F0E94B10E882329F0809123
:1030D0006A04846080936A04FE01EE5EF84F80818A
:1030E000833051F4812F0E94B10E882329F0809102
:1030F0006A04826080936A04FE01EE5EF84F80816C
:10310000843039F4812F0E94B10E882311F0F0929F
:103110006B04FE01EE5EF84F8081853039F4812F1B
:103120000E94B10E882311F000936B04FE01EE5E45
:10313000F84F8081863039F4812F0E94B10E8823A8
:1031400011F0F0926C04FE01EE5EF84F8081873042
:1031500039F4812F0E94B10E882311F000936C0482
:10316000FE01EE5EF84F8081883039F4812F0E9495
:10317000B10E882311F0F0926D04FE01EE5EF84F5F
:103180008081893039F4812F0E94B10E882311F09B
:1031900000936D0421961F5F1F3409F07DCF80914D
:1031A0006B048823A1F480916C04882381F48091BE
:1031B0006D04882361F480916A04882341F480912E
:1031C0005202882321F480915306853030F182E049
:1031D0008093690489E694E065E042E8C4DE80916A
:1031E0006B04882379F480916C04882359F48091CE
:1031F0006D04882339F480916A04882319F41092AD
:10320000520203C081E08093520210926B0410922C
:103210006C0410926D0410926A04DF91CF911F919B
:103220000F91FF900895EF92FF920F931F93DF93FA
:10323000CF930F92CDB7DEB780912107882371F02D
:103240002091210730E02150304081E090E002C021
:10325000880F991F2A95E2F78093640490E0EE248A
:10326000FF2487010E5E184FD8018C918A30A0F0A0
:103270008E2D805C99830E94B10E9981882361F024
:10328000E92FF0E0D8018C918650ED59FB4F8283F5
:103290009F5F933008F090E00894E11CF11CBFE0C0
:1032A000EB16F104F1F680916504882381F4809196
:1032B0006604882361F480916704882341F4809137
:1032C0004F04882321F480915306853020F183E058
:1032D0008093630483E694E065E042E844DE8091F5
:1032E0006504882359F480916604882339F4809119
:1032F0006704882319F410924F0403C081E080937F
:103300004F04109267048091670480936604809153
:103310006604809365040F90CF91DF911F910F9108
:10332000FF90EF900895DF93CF93CDB7DEB7CC5FDA
:10333000D0400FB6F894DEBF0FBECDBFCE010196D0
:1033400066EF71E04CEF50E00E9485288E898093F3
:103350007E0110927F0180934E029C8180E02B8140
:10336000820F911D90934301809342019E8180E0E2
:103370002D81820F911D909345018093440180918E
:103380004A0782958F7080938601DE011796EDEED5
:10339000F1E09E012A5E3F4F8D918083118232962B
:1033A000A217B307C9F7C450DF4F0FB6F894DEBFBA
:1033B0000FBECDBFCF91DF9108950F931F93DF9381
:1033C000CF93CDB7DEB7CC5FD0400FB6F894DEBF59
:1033D0000FBECDBF8E010F5F1F4FC80166EF71E0BA
:1033E0004CEF50E00E948528C8016CEF70E00E940D
:1033F000810F9A838983C80166EF71E04CEF50E03A
:103400000E94AF28C450DF4F0FB6F894DEBF0FBE46
:10341000CDBFCF91DF911F910F91089581E061ECB5
:1034200042E30E94052380914A0790E087709070E4
:10343000892B29F082E061EC42E30C940523089586
:10344000DF93CF93CDB7DEB7C25FD2400FB6F8940B
:10345000DEBF0FBECDBFFE01319682EF92E0DF01ED
:103460009C011D9221503040E1F7CF0160E070E0F7
:1034700042EF52E00E94AF28CE50DD4F0FB6F894D5
:10348000DEBF0FBECDBFCF91DF9108959091590758
:1034900020915B0780915807813021F0893009F035
:1034A00028C12FC080915707813A09F022C180912D
:1034B000E800877F8093E8002223E9F49130A1F4AB
:1034C00080915602813059F46091570270915802F0
:1034D000409159028AE592E050E00E94852885E5F6
:1034E00092E065E270E006C0923029F48CE695E047
:1034F00069EA70E0CAD68091E8008B778093E80093
:10350000089580915707813209F0F3C08091E80057
:10351000877F8093E800222309F0E6C0913009F00C
:10352000E3C085E592E065E270E00DD78091560238
:10353000823059F4609157027091580240915902BB
:103540008AE592E050E00E94AF28809156028330D5
:1035500011F480937B02809156028A3009F4A1DC39
:10356000809156028B3009F4C5DC809156028C3074
:1035700009F466DF809156028D3011F410927B02BF
:10358000809156028E3019F481E080937B02809105
:103590005602853619F481E08093340280915602F8
:1035A000863619F481E08093510280915602873665
:1035B00088F1809156028B3768F58091560290E031
:1035C0008756904020915A02FC01EE0FFF1FE80F32
:1035D000F91FE95EF94F20838091560290E08756EB
:1035E000904020915B02FC01EE0FFF1FE80FF91FD6
:1035F000E95EF94F21838091560290E08756904012
:1036000020915C02FC01EE0FFF1FE80FF91FE95E3D
:10361000F94F2283809156028B37B9F420E030E0D5
:1036200080915A02F901EE0FFF1FE20FF31FE95ECE
:10363000F94F808380915B02818380915C02828359
:103640002F5F3F4F2431310559F7809156028C3757
:10365000B9F420E030E080914D07F901EE0FFF1F33
:10366000E20FF31FE95EF94F808380914E0781835B
:1036700080914F0782832F5F3F4F2431310559F7E7
:10368000809156028D3760F0809156028D3940F45A
:10369000E0915602F0E080915A02E150FE4F8083A3
:1036A000809156028D3969F420E030E080915A0211
:1036B000F901E458FD4F80832F5F3F4F20323105E1
:1036C000A9F7809156028E3979F420E030E0F901B3
:1036D000EB5AFD4F8581F901E458FD4F80832F5F40
:1036E0003F4F2032310599F78091E8008E77809323
:1036F000E8000895BF92CF92DF92EF92FF920F936E
:103700001F93DF93CF93CDB7DEB7CC5FD0400FB61A
:10371000F894DEBF0FBECDBF109250021092560635
:10372000109216061092520410924F0210924D04FD
:1037300010925402109268041092500410924E0499
:1037400010927A02109255068EE694E060E070E0E6
:103750004DEF50E00E94852888E596E06DEF70E01F
:1037600049EF50E00E9485288E010F5F1F4FC8016E
:1037700066EF71E04CEF50E00E948528C8016CEFC5
:1037800070E00E94810F009709F433C429813A81C7
:103790002115310509F42DC42817390709F029C46A
:1037A00082E080936D051092700510926F05109263
:1037B0006E0581E080937B021092530210926B059C
:1037C00010925406EE24FF24CC24CA94DC2CBB2493
:1037D000B3948701000F111FF80183E0EE0FFF1F64
:1037E0008A95E1F7E00FF11FE259FB4F80818F705E
:1037F0008130E9F48E2D0E945F04F801E852FD4FFC
:10380000918380838E2D0E945F04F801E456FD4F62
:10381000918380838E2D0E945F04F801E055FD4F57
:1038200091838083F801EC53FD4FD182C082F70170
:10383000EE0FFF1FE451FD4FD182C082F701EE0F62
:10384000FF1FE459FA4FD682C582F701E55FF94FB1
:103850001082F701EE0FFF1FE050FD4FD182C082B2
:10386000F70163E0EE0FFF1F6A95E1F7EE0DFF1D14
:10387000EE0FFF1FE059FB4FE081E07EE03221F0C8
:10388000E03411F0EE2399F4C701880F991FFC0171
:1038900033E0EE0FFF1F3A95E1F7E80FF91FE25909
:1038A000FB4FD586C486D786C686D18AC08AF701E3
:1038B000EE0FFF1FEC5EFC4F11821082F701EE0F3E
:1038C000FF1FE85DFC4F11821082F701E05BFC4FA7
:1038D0001082F701EE0FFF1FE45CFC4FD182C08223
:1038E000C701880F991FFC0113E0EE0FFF1F1A9507
:1038F000E1F7E80FF91FE259FB4F80818F708A30A2
:1039000021F080818F708B3039F48091560680646D
:1039100080935606B0925302C701880F991F8C01FD
:10392000A3E0000F111FAA95E1F7080F191F025914
:103930001B4FD8018C9190E08F70907003970CF41E
:10394000EAC011968C911197882309F4E4C0B092D3
:10395000540611968C9111978823A9F011968C9199
:103960001197893080F48091500211966C910E94D9
:1039700064018093500280915402F80161810E9499
:10398000640180935402C701880F991F8C01E3E002
:10399000000F111FEA95E1F7080F191F02591B4F7D
:1039A000D80111968C9111978930A8F011968C91BD
:1039B0001197813180F48091560611966C910E9486
:1039C00064018093560680916804F80161810E9429
:1039D000640180936804C701880F991F8C0163E01C
:1039E000000F111F6A95E1F7080F191F02591B4FAD
:1039F000D80111968C9111978131A8F011968C9174
:103A00001197893180F48091160611966C910E946D
:103A100064018093160680915004F80161810E9430
:103A2000640180935004C701880F991F8C0143E003
:103A3000000F111F4A95E1F7080F191F02591B4F7C
:103A4000D80111968C9111978931A8F011968C911B
:103A50001197813280F48091520411966C910E94EA
:103A600064018093520480914E04F80161810E94A8
:103A7000640180934E04C701880F991F8C0123E0D5
:103A8000000F111F2A95E1F7080F191F02591B4F4C
:103A9000D80111968C9111978132A8F011968C91D2
:103AA0001197893280F480914F0211966C910E9497
:103AB000640180934F0280917A02F80161810E9433
:103AC000640180937A02C701880F991F8C01A3E0DB
:103AD000000F111FAA95E1F7080F191F02591B4F7C
:103AE000D80111968C9111978932A8F011968C917A
:103AF0001197813380F480914D0411966C910E944E
:103B0000640180934D0480915506F80161810E9403
:103B1000640180935506C701880F991F8C01E3E06B
:103B2000000F111FEA95E1F7080F191F02591B4FEB
:103B3000D8018C918F70823009F0E4C0B0926B058F
:103B400011968C9111978823A9F011968C91119759
:103B5000893080F48091500211966C910E94A101ED
:103B60008093500280915402F80161810E94A1016A
:103B700080935402C701880F991F8C0163E0000FE6
:103B8000111F6A95E1F7080F191F02591B4FD80141
:103B900011968C9111978930A8F011968C911197FC
:103BA000813180F48091560611966C910E94A1019A
:103BB0008093560680916804F80161810E94A101FA
:103BC00080936804C701880F991F8C0143E0000FA0
:103BD000111F4A95E1F7080F191F02591B4FD80111
:103BE00011968C9111978131A8F011968C911197B3
:103BF000893180F48091160611966C910E94A10182
:103C00008093160680915004F80161810E94A10101
:103C100080935004C701880F991F8C0123E0000F87
:103C2000111F2A95E1F7080F191F02591B4FD801E0
:103C300011968C9111978931A8F011968C9111975A
:103C4000813280F48091520411966C910E94A101FE
:103C50008093520480914E04F80161810E94A10179
:103C600080934E04C701880F991F8C01A3E0000FB9
:103C7000111FAA95E1F7080F191F02591B4FD80110
:103C800011968C9111978132A8F011968C91119711
:103C9000893280F480914F0211966C910E94A101AB
:103CA00080934F0280917A02F80161810E94A10104
:103CB00080937A02C701880F991F8C01E3E0000FFF
:103CC000111FEA95E1F7080F191F02591B4FD80180
:103CD00011968C9111978932A8F011968C911197B9
:103CE000813380F480914D0411966C910E94A10162
:103CF00080934D0480915506F80161810E94A101D5
:103D0000809355060894E11CF11CFAE0EF16F104CB
:103D100009F05FCD1092510720E030E0F901EE0F7D
:103D2000FF1FE85DF84F8081882369F0F901EE0FED
:103D3000FF1FE75DF84F8081882329F080915107AC
:103D40008F5F809351072F5F3F4F2630310531F74A
:103D5000EE24FF248701000F111F0E0D1F1D0C5CA8
:103D6000184FD8018C91882309F4A6C08C91882320
:103D700091F08C91893078F4809150026C910E947E
:103D800064018093500280915402F80160810E9486
:103D90006401809354028701000F111F0E0D1F1D37
:103DA0000C5C184FD8018C91893090F08C91813146
:103DB00078F4809156066C910E94640180935606B7
:103DC00080916804F80160810E9464018093680416
:103DD0008701000F111F0E0D1F1D0C5C184FD8011D
:103DE0008C91813190F08C91893178F48091160614
:103DF0006C910E9464018093160680915004F80132
:103E000060810E946401809350048701000F111F9C
:103E10000E0D1F1D0C5C184FD8018C91893190F04C
:103E20008C91813278F4809152046C910E946401EB
:103E30008093520480914E04F80160810E946401D5
:103E400080934E048701000F111F0E0D1F1D0C5C87
:103E5000184FD8018C91813290F08C91893278F48E
:103E600080914F026C910E94640180934F02809177
:103E70007A02F80160810E94640180937A028701CE
:103E8000000F111F0E0D1F1D0C5C184FD8018C91D7
:103E9000893290F08C91813378F480914D046C914B
:103EA0000E94640180934D0480915506F801608161
:103EB0000E946401809355060894E11CF11CF2E015
:103EC000EF16F10409F046CF80914C0780FF0EC039
:103ED000809156066EE00E946401809356068091A0
:103EE00068046EE00E94A1018093680480914C07F1
:103EF00081FF0EC0809156066DE00E9464018093A0
:103F00005606809168046DE00E9464018093680405
:103F10000E94141081E08093550210925602109274
:103F20005802109257021092590282E080936C0559
:103F30000E94AD0380914C0780FF19C020E030E063
:103F400080914D07F901EE0FFF1FE20FF31FE95EAD
:103F5000F94F808380914E07818380914F07828340
:103F60002F5F3F4F2431310559F70E94820680911F
:103F70004C0781FF0FC080E090E02FEFFC01E45878
:103F8000FD4F2083019680329105C1F70E94F90010
:103F90000E94EA0082E08093690410926B04109200
:103FA0006C0410926D0410926A041092520283E025
:103FB00080936304109264041092670480916704F4
:103FC00080936604809166048093650410924F0488
:103FD000C450DF4F0FB6F894DEBF0FBECDBFCF91F8
:103FE000DF911F910F91FF90EF90DF90CF90BF90E6
:103FF00008952EE634E0C90160E070E04DEF50E036
:104000000E947E2828E536E0C90160E070E049EFB3
:1040100050E00E947E28FE0131968CEFDF011D9258
:104020008A95E9F780E280934A071E8A88E88B83A5
:104030008C838D838E838DE48F8388878AE4898740
:104040008DE28A8782E78B8795E69C8783E78D8759
:104050009E8784E78F87CF0166EF71E04CEF50E0D9
:104060000E94AF289DCB81E08093350210925706C5
:104070001092530610923402109251020E940F0EB9
:1040800039DB51D9AED37894809153028111269AAD
:104090000895EF92FF920F931F93DF93CF93CDB7C5
:1040A000DEB769970FB6F894DEBF0FBECDBFDBDF7A
:1040B00025E3E22E22E0F22E8E010F5F1F4FA8951E
:1040C000ECD580917B02813009F043C00E9430160C
:1040D00080914A0780FF1CC00E94E71640914B0761
:1040E00085E392E0B80150E0F3D7009721F4809186
:1040F0005306853068F060914B0785E392E042E813
:104100000E94B31740914B07C801B70150E0EDD7AB
:1041100080914A0781FF02C00E94DB1780914A0705
:1041200082FF01C080D880913402882321F0109250
:1041300034020E94820680915102882321F010925D
:1041400051020E948C0680915306853010F0109227
:10415000530680917B02833009F0B1CF2ED90E94A3
:104160005117ADCF0F931F93DF93CF93CDB7DEB72A
:10417000CC5FD0400FB6F894DEBF0FBECDBF782F16
:104180008A01F90182E08083933009F1943030F4A0
:10419000913051F0923009F064C00BC09132E9F1D6
:1041A000923209F05EC046C08AE391E022E130E03D
:1041B0005CC080914E02882329F08CE491E02BE3CF
:1041C00030E053C087E891E022E230E04EC0713029
:1041D00079F0713030F0723091F0733009F041C0F5
:1041E00015C08091A901282F30E089EA91E03DC0F7
:1041F0008091AD01282F30E08DEA91E036C08091AA
:10420000EB01282F30E08BEE91E02FC080910D0262
:10421000282F30E08DE092E028C0662319F061304D
:1042200001F503C089E991E002C087E791E029E048
:1042300030E01BC0662319F0613099F405C089E1B4
:1042400091E021E230E011C0CE01019666EF71E00D
:104250004CEF50E05AD78E89282F30E0CE01479698
:1042600004C080E090E020E030E0F801918380839A
:10427000C901C450DF4F0FB6F894DEBF0FBECDBFEB
:10428000CF91DF911F910F9108959C0140915D079F
:1042900050915E074617570718F4F90190E03DC0AA
:1042A0006115710511F0AB01F8CF8091E8008E77B0
:1042B0008093E80040E050E0F0CF809156078823DB
:1042C000F1F18530F1F18091E80083FF02C081E0D7
:1042D00008958091E80082FD2CC08091E80080FF65
:1042E0001CC02091F2003091F30007C081918093AF
:1042F000F100415050402F5F3F4F4115510519F0DB
:104300002830310598F390E02830310509F491E028
:104310008091E8008E778093E8004115510569F699
:10432000992359F606C080915607882341F08530BD
:1043300041F08091E80082FFF6CF80E0089582E0AE
:10434000089583E008959C016115710529F4809119
:10435000E8008B778093E800F90122C0809156072E
:10436000882371F1853071F18091E80083FF02C0EC
:1043700081E008958091E80082FFF0CF06C080912F
:10438000F10081936150704031F08091F200909182
:10439000F300892BA1F78091E8008B778093E800E8
:1043A00061157105D9F606C080915607882341F042
:1043B000853041F08091E80080FFF6CF80E00895DD
:1043C00082E0089583E008959C0140915D0750913B
:1043D0005E074617570718F4F90190E040C06115D1
:1043E000710511F0AB01F8CF8091E8008E778093D2
:1043F000E80040E050E0F0CF80915607882309F4B0
:1044000040C0853009F43FC08091E80083FF02C0BE
:1044100081E008958091E80082FD2DC08091E80040
:1044200080FF1DC02091F2003091F30008C08491FC
:104430008093F1003196415050402F5F3F4F41151E
:10444000510519F02830310590F390E028303105FE
:1044500009F491E08091E8008E778093E80041159F
:10446000510551F6992341F606C0809156078823DD
:1044700041F0853041F08091E80082FFF6CF80E086
:10448000089582E0089583E00895EF92FF920F93DC
:104490001F93CF93DF939C0100915D0710915E07FE
:1044A0000617170718F4790190E041C061157105EE
:1044B00011F08B01F8CF8091E8008E778093E800AF
:1044C00000E010E0F0CF80915607882309F441C046
:1044D000853009F440C08091E80083FF02C081E08C
:1044E0003BC08091E80082FD2EC08091E80080FFF3
:1044F0001EC0C091F200D091F3000AC0C70115D6CA
:104500008093F1000894E11CF11C015010402196A9
:104510000115110519F0C830D10580F390E02897F6
:1045200009F491E08091E8008E778093E80001150E
:10453000110549F6992339F606C08091560788235C
:1045400041F0853041F08091E80082FFF6CF80E0B5
:1045500003C082E001C083E0DF91CF911F910F91F2
:10456000FF90EF900895BF92CF92DF92EF92FF926B
:104570000F931F93CF93DF93182F092F7B016A01AD
:104580009DD0B82E8823B1F5812F902F9C01E90191
:10459000C114D10439F0F60180819181E81AF90A39
:1045A000C80FD91F00E010E022C08091E80085FD0F
:1045B00016C08091E8008E778093E8006ED3C11416
:1045C000D10449F0F60180819181800F911F918380
:1045D000808385E010C072D0882349F00CC0899197
:1045E0008093F1000894E108F1080F5F1F4FE11478
:1045F000F104D9F68B2DDF91CF911F910F91FF9090
:10460000EF90DF90CF90BF900895382F282F2EC0C5
:10461000822F8F708093E900231721F4762F942F37
:1046200050E006C07091EC009091ED005091F000C8
:1046300091FF1BC08091EB008E7F8093EB008091F7
:10464000ED008D7F8093ED008091EB008160809381
:10465000EB007093EC009093ED005093F00080918C
:10466000EE0087FD02C080E008952F5F273080F2C2
:104670003F703093E90081E00895809157078823C7
:104680009CF404C0809156078823B9F08091E8001B
:1046900082FFF8CF8091E8008B778093E80008953F
:1046A00080915607882349F08091E80080FFF8CF79
:1046B0008091E8008E778093E80008954091E400AF
:1046C0005091E50024E68091EC0080FF24C08091A9
:1046D000E80080FD1EC080915607882311F482E017
:1046E0000895853011F483E008958091EB0085FFF3
:1046F00002C081E008958091E4009091E500841764
:10470000950709F3222311F484E008952150AC01A8
:10471000DACF80E008958091E80082FFDCCFF9CF06
:104720006ED075D0E0EEF0E0808181608083A8EDEE
:10473000B0E08C918F778C9319BCE7EDF0E080812D
:104740008E7F80838C918F7E8C9310925507089575
:10475000EF92FF920F931F9352D059D008ED10E0C3
:10476000F80180818F778083808180688083808159
:104770008F7D8083E7EDF0E080818068808319BCC5
:104780001092560710925207109254071092530736
:1047900080EEE82EF12CF70180818B7F8083F80179
:1047A00080818160808380E060E042E02EDFE1EE86
:1047B000F0E080818E7F8083E2EEF0E08081816096
:1047C0008083808188608083F70180818E7F8083F1
:1047D000F8018081806180831F910F91FF90EF909D
:1047E0000895E8EDF0E080818F7E8083E7EDF0E0D2
:1047F00080818160808381E080935507A9CFE8EDB7
:10480000F0E080818C7F80831092E2000895109206
:10481000DA001092E10008951F920F920FB60F92E6
:1048200011242F933F934F935F936F937F938F93B5
:104830009F93AF93BF93EF93FF938091E10082FF2B
:104840000AC08091E20082FF06C08091E1008B7F68
:104850008093E10021D28091DA0080FF1FC0809117
:10486000D80080FF1BC08091DA008E7F8093DA0031
:104870008091D90080FF0DC088E189BD8AE189BDA2
:1048800009B400FEFDCF81E0809356070E94E51633
:1048900005C019BC109256070E94E6168091E100EF
:1048A00080FF18C08091E20080FF14C08091E20078
:1048B0008E7F8093E2008091E20080618093E2002D
:1048C0008091D80080628093D80019BC85E08093E5
:1048D0005607E2D18091E10084FF2FC08091E20071
:1048E00084FF2BC088E189BD8AE189BD09B400FE3F
:1048F000FDCF8091D8008F7D8093D8008091E1001A
:104900008F7E8093E1008091E2008F7E8093E200B1
:104910008091E20081608093E200809152078823B9
:1049200011F084E007C08091E30087FD02C081E0C0
:1049300001C083E080935607AFD18091E10083FFEF
:1049400022C08091E20083FF1EC08091E100877F3A
:104950008093E10082E08093560710925207809185
:10496000E1008E7F8093E1008091E2008E7F809352
:10497000E2008091E20080618093E20080E060E0EC
:1049800042E043DE89D1FF91EF91BF91AF919F91BA
:104990008F917F916F915F914F913F912F910F90E8
:1049A0000FBE0F901F9018951F93DF93CF93CDB735
:1049B000DEB7AD970FB6F894DEBF0FBECDBFE7E50B
:1049C000F7E08091F100819327E0EF35F207C9F716
:1049D0000E94461A8091E80083FF46C180915707E4
:1049E00030915807353009F487C0363040F4313003
:1049F000C9F1313070F0333009F036C133C038308E
:104A000009F403C1393009F412C1363009F02CC160
:104A100096C0803821F0823809F026C108C09091F4
:104A2000530780915407882399F0926011C08091B8
:104A30005B078F708093E9008091EB0090E025E0A8
:104A4000969587952A95E1F7982F91701092E90035
:104A50008091E800877F8093E8009093F1001092A6
:104A6000F100DEC0882319F0823009F0FDC090E02B
:104A70008F719070009721F0029709F0F5C00CC07B
:104A800080915907813009F0EFC0109254073330FC
:104A900069F5809354072AC080915907882331F51E
:104AA00020915B072F7009F4DFC02093E90080910B
:104AB000EB0080FF1BC0333021F48091EB0080625B
:104AC00013C08091EB0080618093EB0081E090E067
:104AD00002C0880F991F2A95E2F78093EA0010928E
:104AE000EA008091EB0088608093EB001092E9006F
:104AF0008091E800877F97C0882309F0B5C01091A6
:104B000059071F778091E3008078812B8093E30021
:104B10008091E800877F8093E800AFDD8091E80016
:104B200080FFFCCF8091E30080688093E300112335
:104B300011F482E001C083E08093560795C080584D
:104B4000823008F091C08091590790915A0723E074
:104B50008C3D920709F032C083E08D838AE28C831A
:104B60007FB7F894DE0116966EE040E050E011E267
:104B7000E62FF0E010935700849140FF03C0829528
:104B80008F706F5F8F70282F30E08A3018F0C90166
:104B9000C79602C0C901C0968D939D934F5F5F4F2A
:104BA0004431510529F77FBF8091E800877F8093CA
:104BB000E800CE0104966AE270E020C060915B07D5
:104BC000AE014E5F5F4F9E012F5F3F4F0E94B017B7
:104BD000BC01009709F448C08091E800877F80936A
:104BE000E8002981222321F48A819B81EDDB07C023
:104BF0008A819B81213011F448DC01C046DB809121
:104C0000E8008B778093E8002FC0803869F58091A9
:104C1000E800877F8093E800809152078093F1003D
:104C20008091E8008E778093E80027DD1DC08823FF
:104C3000D9F4909159079230B8F48091E800877FB9
:104C40008093E8009093520718DD809152078823E3
:104C500031F48091E30087FD02C081E001C084E06F
:104C6000809356070E940E1A8091E80083FF0AC0C5
:104C70008091E800877F8093E8008091EB0080625C
:104C80008093EB00AD960FB6F894DEBF0FBECDBF9C
:104C9000CF91DF911F91089508951F93809156073A
:104CA000882371F01091E9008091EC001092E900E6
:104CB0008091E80083FF01C077DE1F701093E90048
:104CC0001F9108950CD0E6C0DED040F0D5D030F072
:104CD00021F45F3F19F0C7C0511110C1CAC0EBD019
:104CE00098F39923C9F35523B1F3951B550BBB27B3
:104CF000AA2762177307840738F09F5F5F4F220F60
:104D0000331F441FAA1FA9F333D00E2E3AF0E0E858
:104D100030D091505040E695001CCAF729D0FE2FA4
:104D200027D0660F771F881FBB1F26173707480736
:104D3000AB07B0E809F0BB0B802DBF01FF279358EC
:104D40005F4F2AF09E3F510568F08DC0D7C05F3F8E
:104D5000ECF3983EDCF3869577956795B795F795D4
:104D60009F5FC9F7880F911D9695879597F90895CC
:104D7000E1E0660F771F881FBB1F62177307840768
:104D8000BA0720F0621B730B840BBA0BEE1F88F777
:104D9000E095089598D088F09F5790F0B92F992703
:104DA000B751A0F0D1F0660F771F881F991F1AF036
:104DB000BA95C9F712C0B13081F09FD0B1E0089523
:104DC0009CC0672F782F8827B85F39F0B93FCCF3A4
:104DD000869577956795B395D9F73EF4909580952C
:104DE000709561957F4F8F4F9F4F0895E89409C04C
:104DF00097FB3EF490958095709561957F4F8F4F0E
:104E00009F4F9923A9F0F92F96E9BB279395F69523
:104E1000879577956795B795F111F8CFFAF4BB0FA1
:104E200011F460FF1BC06F5F7F4F8F4F9F4F16C005
:104E3000882311F096E911C0772321F09EE8872F8F
:104E4000762F05C0662371F096E8862F70E060E04B
:104E50002AF09A95660F771F881FDAF7880F9695C4
:104E6000879597F9089597F99F6780E870E060E06B
:104E700008959FEF80EC089500240A9416161706F3
:104E800018060906089500240A941216130614063B
:104E900005060895092E0394000C11F4882352F09E
:104EA000BB0F40F4BF2B11F460FF04C06F5F7F4F56
:104EB0008F4F9F4F089557FD9058440F551F59F03D
:104EC0005F3F71F04795880F97FB991F61F09F3FF7
:104ED00079F087950895121613061406551FF2CF20
:104EE0004695F1DF08C0161617061806991FF1CF70
:104EF00086957105610508940895E894BB27662797
:104F00007727CB0197F908950BD0C4CFB5DF28F0F0
:104F1000BADF18F0952309F0A6CFABCF1124EECF5E
:104F2000CADFA0F3959FD1F3950F50E0551F629F04
:104F3000F001729FBB27F00DB11D639FAA27F00DF2
:104F4000B11DAA1F649F6627B00DA11D661F829F19
:104F50002227B00DA11D621F739FB00DA11D621FFE
:104F6000839FA00D611D221F749F3327A00D611D1B
:104F7000231F849F600D211D822F762F6A2F1124FD
:104F80009F5750408AF0E1F088234AF0EE0FFF1F50
:104F9000BB1F661F771F881F91505040A9F79E3F87
:104FA000510570F060CFAACF5F3FECF3983EDCF381
:104FB000869577956795B795F795E7959F5FC1F7C4
:104FC000FE2B880F911D9695879597F90895629FFE
:104FD000D001739FF001829FE00DF11D649FE00DF1
:104FE000F11D929FF00D839FF00D749FF00D659F52
:104FF000F00D9927729FB00DE11DF91F639FB00D51
:10500000E11DF91FBD01CF011124089587FB082E72
:10501000062687FD819567FD61954ED00EF491952A
:1050200007FC81950895AA1BBB1B51E107C0AA1F6D
:10503000BB1FA617B70710F0A61BB70B881F991F39
:105040005A95A9F780959095BC01CD01089597FBDD
:10505000092E07260AD077FD04D0E5DF06D0002010
:105060001AF4709561957F4F0895F6F790958195A4
:105070009F4F0895A1E21A2EAA1BBB1BFD010DC074
:10508000AA1FBB1FEE1FFF1FA217B307E407F507F8
:1050900020F0A21BB30BE40BF50B661F771F881FD4
:1050A000991F1A9469F760957095809590959B016A
:1050B000AC01BD01CF010895991B79E004C0991F8F
:1050C000961708F0961B881F7A95C9F78095089562
:1050D000FB01DC0104C08D910190801921F4415045
:1050E0005040C8F7881B990B0895FB01DC0102C0F2
:1050F00001900D9241505040D8F70895DC0101C055
:105100006D9341505040E0F70895DC01CB01FC0164
:10511000F999FECF06C0F2BDE1BDF89A319600B410
:105120000D9241505040B8F70895F999FECF92BDC5
:1051300081BDF89A992780B50895262FF999FECF59
:1051400092BD81BDF89A019700B4021639F01FBADA
:1051500020BD0FB6F894FA9AF99A0FBE0895DC01B3
:10516000CB0102C02D9105D041505040D8F7089591
:10517000262FF999FECF1FBA92BD81BD20BD0FB673
:10518000F894FA9AF99A0FBE01960895F894FFCF11
:1051900080410A0D0632039F01D000680034001AD6
:1051A000000D000600030001000600FF0901A10137
:1051B000150026FF007508850195250900B202013A
:1051C000850295A90900B20201C012011001000078
:1051D00000088888888801000102030109023B0059
:1051E000020100806409040000010300000009219D
:1051F0001101000122210007058103400004090478
:105200000100010300000009211101000122FE003C
:1052100007058203400004090222000101008064A6
:10522000090400000103000000092111010001220E
:10523000210007058103400004040309043C0356D0
:10524000006900740061006C00790020005B006D53
:10525000006500670061005F006D006F007A006705
:10526000005D0020004E0061006900640065006E72
:10527000007400730065007600000020034D004DAF
:10528000004A006F0079003200200020002000203A
:105290000020002000200020002000000020034DFE
:1052A000004D004A006F00790032002D00320030BE
:1052B00000310035003100310031003800000000BD
:00000001FF
